{
  "contractName": "Game",
  "abi": [
    {
      "constant": false,
      "inputs": [
        {
          "name": "name",
          "type": "string"
        }
      ],
      "name": "createCharacter",
      "outputs": [],
      "payable": false,
      "stateMutability": "nonpayable",
      "type": "function"
    },
    {
      "constant": true,
      "inputs": [],
      "name": "getCharacter",
      "outputs": [
        {
          "name": "",
          "type": "address"
        }
      ],
      "payable": false,
      "stateMutability": "view",
      "type": "function"
    }
  ],
  "bytecode": "0x608060405234801561001057600080fd5b50610621806100206000396000f3fe60806040526004361061004c576000357c0100000000000000000000000000000000000000000000000000000000900463ffffffff1680631e8237df146100515780637e6cc17f146100a8575b600080fd5b34801561005d57600080fd5b50610066610170565b604051808273ffffffffffffffffffffffffffffffffffffffff1673ffffffffffffffffffffffffffffffffffffffff16815260200191505060405180910390f35b3480156100b457600080fd5b5061016e600480360360208110156100cb57600080fd5b81019080803590602001906401000000008111156100e857600080fd5b8201836020820111156100fa57600080fd5b8035906020019184600183028401116401000000008311171561011c57600080fd5b91908080601f016020809104026020016040519081016040528093929190818152602001838380828437600081840152601f19601f8201169050808301925050505050505091929192905050506101d6565b005b60008060003373ffffffffffffffffffffffffffffffffffffffff1673ffffffffffffffffffffffffffffffffffffffff16815260200190815260200160002060009054906101000a900473ffffffffffffffffffffffffffffffffffffffff16905090565b806101df6102ea565b8080602001828103825283818151815260200191508051906020019080838360005b8381101561021c578082015181840152602081019050610201565b50505050905090810190601f1680156102495780820380516001836020036101000a031916815260200191505b5092505050604051809103906000f08015801561026a573d6000803e3d6000fd5b506000803373ffffffffffffffffffffffffffffffffffffffff1673ffffffffffffffffffffffffffffffffffffffff16815260200190815260200160002060006101000a81548173ffffffffffffffffffffffffffffffffffffffff021916908373ffffffffffffffffffffffffffffffffffffffff16021790555050565b6040516102fb806102fb8339019056fe608060405234801561001057600080fd5b506040516102fb3803806102fb8339810180604052602081101561003357600080fd5b81019080805164010000000081111561004b57600080fd5b8281019050602081018481111561006157600080fd5b815185600182028301116401000000008211171561007e57600080fd5b5050929190505050806000908051906020019061009c9291906100a3565b5050610148565b828054600181600116156101000203166002900490600052602060002090601f016020900481019282601f106100e457805160ff1916838001178555610112565b82800160010185558215610112579182015b828111156101115782518255916020019190600101906100f6565b5b50905061011f9190610123565b5090565b61014591905b80821115610141576000816000905550600101610129565b5090565b90565b6101a4806101576000396000f3fe608060405260043610610041576000357c0100000000000000000000000000000000000000000000000000000000900463ffffffff16806317d7de7c14610046575b600080fd5b34801561005257600080fd5b5061005b6100d6565b6040518080602001828103825283818151815260200191508051906020019080838360005b8381101561009b578082015181840152602081019050610080565b50505050905090810190601f1680156100c85780820380516001836020036101000a031916815260200191505b509250505060405180910390f35b606060008054600181600116156101000203166002900480601f01602080910402602001604051908101604052809291908181526020018280546001816001161561010002031660029004801561016e5780601f106101435761010080835404028352916020019161016e565b820191906000526020600020905b81548152906001019060200180831161015157829003601f168201915b505050505090509056fea165627a7a7230582044fda74fdc9b396df52749ba45ad56d393fa25c1d823beddf5b4f01e19df99060029a165627a7a723058209fc7e0a70f66c31e71354a4af86adbdae71c51fb485db9b80eff58f5914944310029",
  "source": "pragma solidity ^0.5.0;\r\n\r\nimport \"./Character.sol\";\r\n\r\ncontract Game{\r\n    mapping(address => Character) private _characters;\r\n\r\n    function createCharacter(string memory name) public {\r\n        _characters[msg.sender] = new Character(name);\r\n    }\r\n\r\n    function getCharacter() public view returns (Character){\r\n        return _characters[msg.sender];\r\n    }\r\n}",
  "sourcePath": "C:/Users/Yichun/Documents/Projects/Programming/ethereum-game/solidity/contracts/Game.sol",
  "compiler": {
    "name": "solc",
    "version": "0.5.0+commit.1d4f565a.Emscripten.clang"
  },
  "schemaVersion": "3.0.1",
  "updatedAt": "2019-01-11T16:53:03.209Z",
  "devdoc": {
    "methods": {}
  },
  "userdoc": {
    "methods": {}
  }
}