{
  "contractName": "Barbarian",
  "abi": [
    {
      "constant": true,
      "inputs": [],
      "name": "getName",
      "outputs": [
        {
          "name": "",
          "type": "string"
        }
      ],
      "payable": false,
      "stateMutability": "pure",
      "type": "function",
      "signature": "0x17d7de7c"
    }
  ],
  "bytecode": "0x608060405234801561001057600080fd5b5061013f806100206000396000f3fe608060405260043610610041576000357c0100000000000000000000000000000000000000000000000000000000900463ffffffff16806317d7de7c14610046575b600080fd5b34801561005257600080fd5b5061005b6100d6565b6040518080602001828103825283818151815260200191508051906020019080838360005b8381101561009b578082015181840152602081019050610080565b50505050905090810190601f1680156100c85780820380516001836020036101000a031916815260200191505b509250505060405180910390f35b60606040805190810160405280600981526020017f42617262617269616e000000000000000000000000000000000000000000000081525090509056fea165627a7a723058203879a70b0e584600537c0ef78f4194eee308689bd4239042e0eb9897b3bc0f720029",
  "source": "pragma solidity ^0.5.0;\r\n\r\nimport \"../Class.sol\";\r\n\r\ncontract Barbarian is Class{\r\n    function getName() public pure returns (string memory){\r\n        return \"Barbarian\";\r\n    }\r\n}",
  "sourcePath": "C:/Users/Yichun/Documents/Projects/Programming/ethereum-game/solidity/contracts/Classes/Barbarian.sol",
  "compiler": {
    "name": "solc",
    "version": "0.5.0+commit.1d4f565a.Emscripten.clang"
  },
  "schemaVersion": "3.0.1",
  "updatedAt": "2019-01-11T22:14:28.409Z",
  "devdoc": {
    "methods": {}
  },
  "userdoc": {
    "methods": {}
  }
}