{
  "contractName": "Character",
  "abi": [
    {
      "inputs": [
        {
          "name": "name",
          "type": "string"
        },
        {
          "name": "class",
          "type": "address"
        }
      ],
      "payable": false,
      "stateMutability": "nonpayable",
      "type": "constructor"
    },
    {
      "constant": true,
      "inputs": [],
      "name": "isExist",
      "outputs": [
        {
          "name": "",
          "type": "uint8"
        }
      ],
      "payable": false,
      "stateMutability": "view",
      "type": "function"
    },
    {
      "constant": true,
      "inputs": [],
      "name": "getName",
      "outputs": [
        {
          "name": "",
          "type": "string"
        }
      ],
      "payable": false,
      "stateMutability": "view",
      "type": "function"
    },
    {
      "constant": true,
      "inputs": [],
      "name": "getClass",
      "outputs": [
        {
          "name": "",
          "type": "address"
        }
      ],
      "payable": false,
      "stateMutability": "view",
      "type": "function"
    },
    {
      "constant": true,
      "inputs": [],
      "name": "getHitPoints",
      "outputs": [
        {
          "name": "",
          "type": "uint256"
        }
      ],
      "payable": false,
      "stateMutability": "view",
      "type": "function"
    },
    {
      "constant": true,
      "inputs": [],
      "name": "getAgility",
      "outputs": [
        {
          "name": "",
          "type": "uint256"
        }
      ],
      "payable": false,
      "stateMutability": "view",
      "type": "function"
    },
    {
      "constant": true,
      "inputs": [],
      "name": "getIntelligence",
      "outputs": [
        {
          "name": "",
          "type": "uint256"
        }
      ],
      "payable": false,
      "stateMutability": "view",
      "type": "function"
    },
    {
      "constant": true,
      "inputs": [],
      "name": "getStrength",
      "outputs": [
        {
          "name": "",
          "type": "uint256"
        }
      ],
      "payable": false,
      "stateMutability": "view",
      "type": "function"
    },
    {
      "constant": true,
      "inputs": [],
      "name": "getExperience",
      "outputs": [
        {
          "name": "",
          "type": "uint256"
        }
      ],
      "payable": false,
      "stateMutability": "view",
      "type": "function"
    },
    {
      "constant": true,
      "inputs": [],
      "name": "getLevel",
      "outputs": [
        {
          "name": "",
          "type": "uint256"
        }
      ],
      "payable": false,
      "stateMutability": "view",
      "type": "function"
    },
    {
      "constant": false,
      "inputs": [
        {
          "name": "level",
          "type": "uint256"
        }
      ],
      "name": "setLevel",
      "outputs": [],
      "payable": false,
      "stateMutability": "nonpayable",
      "type": "function"
    },
    {
      "constant": false,
      "inputs": [
        {
          "name": "experience",
          "type": "uint256"
        }
      ],
      "name": "setExperience",
      "outputs": [],
      "payable": false,
      "stateMutability": "nonpayable",
      "type": "function"
    },
    {
      "constant": false,
      "inputs": [
        {
          "name": "hitPoints",
          "type": "uint256"
        }
      ],
      "name": "setHitPoints",
      "outputs": [],
      "payable": false,
      "stateMutability": "nonpayable",
      "type": "function"
    },
    {
      "constant": false,
      "inputs": [
        {
          "name": "agility",
          "type": "uint256"
        }
      ],
      "name": "setAgility",
      "outputs": [],
      "payable": false,
      "stateMutability": "nonpayable",
      "type": "function"
    },
    {
      "constant": false,
      "inputs": [
        {
          "name": "intelligence",
          "type": "uint256"
        }
      ],
      "name": "setIntelligence",
      "outputs": [],
      "payable": false,
      "stateMutability": "nonpayable",
      "type": "function"
    },
    {
      "constant": false,
      "inputs": [
        {
          "name": "strength",
          "type": "uint256"
        }
      ],
      "name": "setStrength",
      "outputs": [],
      "payable": false,
      "stateMutability": "nonpayable",
      "type": "function"
    }
  ],
  "bytecode": "0x60806040523480156200001157600080fd5b5060405162000ff338038062000ff3833981018060405260408110156200003757600080fd5b8101908080516401000000008111156200005057600080fd5b828101905060208101848111156200006757600080fd5b81518560018202830111640100000000821117156200008557600080fd5b5050929190602001805190602001909291905050508160019080519060200190620000b292919062000158565b5080600260006101000a81548173ffffffffffffffffffffffffffffffffffffffff021916908373ffffffffffffffffffffffffffffffffffffffff160217905550336000806101000a81548173ffffffffffffffffffffffffffffffffffffffff021916908373ffffffffffffffffffffffffffffffffffffffff1602179055506001600960006101000a81548160ff021916908360ff160217905550505062000207565b828054600181600116156101000203166002900490600052602060002090601f016020900481019282601f106200019b57805160ff1916838001178555620001cc565b82800160010185558215620001cc579182015b82811115620001cb578251825591602001919060010190620001ae565b5b509050620001db9190620001df565b5090565b6200020491905b8082111562000200576000816000905550600101620001e6565b5090565b90565b610ddc80620002176000396000f3fe6080604052600436106100db576000357c0100000000000000000000000000000000000000000000000000000000900463ffffffff16806317d7de7c146100e057806327a5428b14610170578063282b2c00146101ab57806339abdee1146101e6578063475502be1461022157806357e61ea4146102525780637e7849ff146102a9578063a5985e8c146102e4578063af9cf6571461030f578063b06d759d1461034a578063bb94ea6714610385578063cdb986cc146103b0578063e0f8b6ad146103db578063ee38684714610406578063f18ac37714610431575b600080fd5b3480156100ec57600080fd5b506100f561045c565b6040518080602001828103825283818151815260200191508051906020019080838360005b8381101561013557808201518184015260208101905061011a565b50505050905090810190601f1680156101625780820380516001836020036101000a031916815260200191505b509250505060405180910390f35b34801561017c57600080fd5b506101a96004803603602081101561019357600080fd5b81019080803590602001909291905050506104fe565b005b3480156101b757600080fd5b506101e4600480360360208110156101ce57600080fd5b81019080803590602001909291905050506105cc565b005b3480156101f257600080fd5b5061021f6004803603602081101561020957600080fd5b810190808035906020019092919050505061069a565b005b34801561022d57600080fd5b50610236610768565b604051808260ff1660ff16815260200191505060405180910390f35b34801561025e57600080fd5b5061026761077f565b604051808273ffffffffffffffffffffffffffffffffffffffff1673ffffffffffffffffffffffffffffffffffffffff16815260200191505060405180910390f35b3480156102b557600080fd5b506102e2600480360360208110156102cc57600080fd5b81019080803590602001909291905050506107a9565b005b3480156102f057600080fd5b506102f9610877565b6040518082815260200191505060405180910390f35b34801561031b57600080fd5b506103486004803603602081101561033257600080fd5b8101908080359060200190929190505050610881565b005b34801561035657600080fd5b506103836004803603602081101561036d57600080fd5b810190808035906020019092919050505061094f565b005b34801561039157600080fd5b5061039a610a1d565b6040518082815260200191505060405180910390f35b3480156103bc57600080fd5b506103c5610af7565b6040518082815260200191505060405180910390f35b3480156103e757600080fd5b506103f0610b01565b6040518082815260200191505060405180910390f35b34801561041257600080fd5b5061041b610bdb565b6040518082815260200191505060405180910390f35b34801561043d57600080fd5b50610446610cb5565b6040518082815260200191505060405180910390f35b606060018054600181600116156101000203166002900480601f0160208091040260200160405190810160405280929190818152602001828054600181600116156101000203166002900480156104f45780601f106104c9576101008083540402835291602001916104f4565b820191906000526020600020905b8154815290600101906020018083116104d757829003601f168201915b5050505050905090565b6000809054906101000a900473ffffffffffffffffffffffffffffffffffffffff1673ffffffffffffffffffffffffffffffffffffffff163373ffffffffffffffffffffffffffffffffffffffff161415156105c2576040517f08c379a00000000000000000000000000000000000000000000000000000000081526004018080602001828103825260158152602001807f52657175657374206e6f742066726f6d2067616d65000000000000000000000081525060200191505060405180910390fd5b8060088190555050565b6000809054906101000a900473ffffffffffffffffffffffffffffffffffffffff1673ffffffffffffffffffffffffffffffffffffffff163373ffffffffffffffffffffffffffffffffffffffff16141515610690576040517f08c379a00000000000000000000000000000000000000000000000000000000081526004018080602001828103825260158152602001807f52657175657374206e6f742066726f6d2067616d65000000000000000000000081525060200191505060405180910390fd5b8060078190555050565b6000809054906101000a900473ffffffffffffffffffffffffffffffffffffffff1673ffffffffffffffffffffffffffffffffffffffff163373ffffffffffffffffffffffffffffffffffffffff1614151561075e576040517f08c379a00000000000000000000000000000000000000000000000000000000081526004018080602001828103825260158152602001807f52657175657374206e6f742066726f6d2067616d65000000000000000000000081525060200191505060405180910390fd5b8060058190555050565b6000600960009054906101000a900460ff16905090565b6000600260009054906101000a900473ffffffffffffffffffffffffffffffffffffffff16905090565b6000809054906101000a900473ffffffffffffffffffffffffffffffffffffffff1673ffffffffffffffffffffffffffffffffffffffff163373ffffffffffffffffffffffffffffffffffffffff1614151561086d576040517f08c379a00000000000000000000000000000000000000000000000000000000081526004018080602001828103825260158152602001807f52657175657374206e6f742066726f6d2067616d65000000000000000000000081525060200191505060405180910390fd5b8060068190555050565b6000600854905090565b6000809054906101000a900473ffffffffffffffffffffffffffffffffffffffff1673ffffffffffffffffffffffffffffffffffffffff163373ffffffffffffffffffffffffffffffffffffffff16141515610945576040517f08c379a00000000000000000000000000000000000000000000000000000000081526004018080602001828103825260158152602001807f52657175657374206e6f742066726f6d2067616d65000000000000000000000081525060200191505060405180910390fd5b8060038190555050565b6000809054906101000a900473ffffffffffffffffffffffffffffffffffffffff1673ffffffffffffffffffffffffffffffffffffffff163373ffffffffffffffffffffffffffffffffffffffff16141515610a13576040517f08c379a00000000000000000000000000000000000000000000000000000000081526004018080602001828103825260158152602001807f52657175657374206e6f742066726f6d2067616d65000000000000000000000081525060200191505060405180910390fd5b8060048190555050565b6000610af2600260009054906101000a900473ffffffffffffffffffffffffffffffffffffffff1673ffffffffffffffffffffffffffffffffffffffff1663bb94ea676040518163ffffffff167c010000000000000000000000000000000000000000000000000000000002815260040160206040518083038186803b158015610aa657600080fd5b505afa158015610aba573d6000803e3d6000fd5b505050506040513d6020811015610ad057600080fd5b8101908080519060200190929190505050600554610d8f90919063ffffffff16565b905090565b6000600754905090565b6000610bd6600260009054906101000a900473ffffffffffffffffffffffffffffffffffffffff1673ffffffffffffffffffffffffffffffffffffffff1663e0f8b6ad6040518163ffffffff167c010000000000000000000000000000000000000000000000000000000002815260040160206040518083038186803b158015610b8a57600080fd5b505afa158015610b9e573d6000803e3d6000fd5b505050506040513d6020811015610bb457600080fd5b8101908080519060200190929190505050600454610d8f90919063ffffffff16565b905090565b6000610cb0600260009054906101000a900473ffffffffffffffffffffffffffffffffffffffff1673ffffffffffffffffffffffffffffffffffffffff1663ee3868476040518163ffffffff167c010000000000000000000000000000000000000000000000000000000002815260040160206040518083038186803b158015610c6457600080fd5b505afa158015610c78573d6000803e3d6000fd5b505050506040513d6020811015610c8e57600080fd5b8101908080519060200190929190505050600354610d8f90919063ffffffff16565b905090565b6000610d8a600260009054906101000a900473ffffffffffffffffffffffffffffffffffffffff1673ffffffffffffffffffffffffffffffffffffffff1663f18ac3776040518163ffffffff167c010000000000000000000000000000000000000000000000000000000002815260040160206040518083038186803b158015610d3e57600080fd5b505afa158015610d52573d6000803e3d6000fd5b505050506040513d6020811015610d6857600080fd5b8101908080519060200190929190505050600654610d8f90919063ffffffff16565b905090565b6000808284019050838110151515610da657600080fd5b809150509291505056fea165627a7a723058206a977d28b3aafef394ea794e4f7921b364240d00a54110802b9a16dfd7f613a20029",
  "source": "pragma solidity ^0.5.0;\r\n\r\nimport \"./Class.sol\";\r\nimport \"./Libraries/SafeMath.sol\";\r\n\r\ncontract Character{\r\n\r\n    using SafeMath for uint;\r\n\r\n    address private _game;\r\n\r\n    string private _name;\r\n    Class private _class;\r\n\r\n    uint private _hitPoints;\r\n    uint private _agility;\r\n    uint private _intelligence;\r\n    uint private _strength;\r\n\r\n    uint private _experience;\r\n    uint private _level;\r\n\r\n    uint8 private _exist; //to check someone has created a character in Game.sol\r\n\r\n    //only msg.sender (the game contract) can change hit points and other status\r\n    modifier isGame{\r\n        require(msg.sender == _game, \"Request not from game\");\r\n        _;\r\n    }\r\n\r\n    constructor(string memory name, Class class) public{\r\n        _name = name;\r\n        _class = class;\r\n        _game = msg.sender;\r\n        _exist = 1;\r\n    }\r\n\r\n    function isExist() public view returns (uint8){\r\n        return _exist;\r\n    }\r\n\r\n    function getName() public view returns(string memory){\r\n        return _name;\r\n    }\r\n\r\n    function getClass() public view returns(Class){\r\n        return _class;\r\n    }\r\n\r\n    function getHitPoints() public view returns (uint){\r\n        return _hitPoints.add(_class.getHitPoints());\r\n    }\r\n\r\n    function getAgility() public view returns (uint){\r\n        return _agility.add(_class.getAgility());\r\n    }\r\n\r\n    function getIntelligence() public view returns (uint){\r\n        return _intelligence.add(_class.getIntelligence());\r\n    }\r\n\r\n    function getStrength() public view returns (uint){\r\n        return _strength.add(_class.getStrength());\r\n    }\r\n\r\n    function getExperience() public view returns (uint){\r\n        return _experience;\r\n    }\r\n\r\n    function getLevel() public view returns (uint){\r\n        return _level;\r\n    }\r\n\r\n    function setLevel(uint level) public isGame{\r\n        _level = level;\r\n    }\r\n\r\n    function setExperience(uint experience) public isGame{\r\n        _experience = experience;\r\n    }\r\n\r\n    function setHitPoints(uint hitPoints) public isGame{\r\n        _hitPoints = hitPoints;\r\n    }\r\n\r\n    function setAgility(uint agility) public isGame{\r\n        _agility = agility;\r\n    }\r\n\r\n    function setIntelligence(uint intelligence) public isGame{\r\n        _intelligence = intelligence;\r\n    }\r\n\r\n    function setStrength(uint strength) public isGame{\r\n        _strength = strength;\r\n    }\r\n\r\n    \r\n}",
  "sourcePath": "C:\\Users\\Yichun\\Documents\\Projects\\Programming\\ethereum-game\\contracts\\Character.sol",
  "compiler": {
    "name": "solc",
    "version": "0.5.0+commit.1d4f565a.Emscripten.clang"
  },
  "schemaVersion": "3.0.1",
  "updatedAt": "2019-01-13T08:21:25.856Z",
  "devdoc": {
    "methods": {}
  },
  "userdoc": {
    "methods": {}
  }
}