{
  "contractName": "Class",
  "abi": [
    {
      "inputs": [
        {
          "name": "name",
          "type": "string"
        },
        {
          "name": "hitPoints",
          "type": "uint256"
        },
        {
          "name": "agility",
          "type": "uint256"
        },
        {
          "name": "intelligence",
          "type": "uint256"
        },
        {
          "name": "strength",
          "type": "uint256"
        }
      ],
      "payable": false,
      "stateMutability": "nonpayable",
      "type": "constructor"
    },
    {
      "constant": true,
      "inputs": [],
      "name": "getName",
      "outputs": [
        {
          "name": "",
          "type": "string"
        }
      ],
      "payable": false,
      "stateMutability": "view",
      "type": "function"
    },
    {
      "constant": true,
      "inputs": [],
      "name": "getHitPoints",
      "outputs": [
        {
          "name": "",
          "type": "uint256"
        }
      ],
      "payable": false,
      "stateMutability": "view",
      "type": "function"
    },
    {
      "constant": true,
      "inputs": [],
      "name": "getAgility",
      "outputs": [
        {
          "name": "",
          "type": "uint256"
        }
      ],
      "payable": false,
      "stateMutability": "view",
      "type": "function"
    },
    {
      "constant": true,
      "inputs": [],
      "name": "getIntelligence",
      "outputs": [
        {
          "name": "",
          "type": "uint256"
        }
      ],
      "payable": false,
      "stateMutability": "view",
      "type": "function"
    },
    {
      "constant": true,
      "inputs": [],
      "name": "getStrength",
      "outputs": [
        {
          "name": "",
          "type": "uint256"
        }
      ],
      "payable": false,
      "stateMutability": "view",
      "type": "function"
    }
  ],
  "bytecode": "0x608060405234801561001057600080fd5b50604051610446380380610446833981018060405260a081101561003357600080fd5b81019080805164010000000081111561004b57600080fd5b8281019050602081018481111561006157600080fd5b815185600182028301116401000000008211171561007e57600080fd5b50509291906020018051906020019092919080519060200190929190805190602001909291908051906020019092919050505084600090805190602001906100c79291906100ee565b50836001819055508260028190555081600381905550806004819055505050505050610193565b828054600181600116156101000203166002900490600052602060002090601f016020900481019282601f1061012f57805160ff191683800117855561015d565b8280016001018555821561015d579182015b8281111561015c578251825591602001919060010190610141565b5b50905061016a919061016e565b5090565b61019091905b8082111561018c576000816000905550600101610174565b5090565b90565b6102a4806101a26000396000f3fe60806040526004361061006d576000357c0100000000000000000000000000000000000000000000000000000000900463ffffffff16806317d7de7c14610072578063bb94ea6714610102578063e0f8b6ad1461012d578063ee38684714610158578063f18ac37714610183575b600080fd5b34801561007e57600080fd5b506100876101ae565b6040518080602001828103825283818151815260200191508051906020019080838360005b838110156100c75780820151818401526020810190506100ac565b50505050905090810190601f1680156100f45780820380516001836020036101000a031916815260200191505b509250505060405180910390f35b34801561010e57600080fd5b50610117610250565b6040518082815260200191505060405180910390f35b34801561013957600080fd5b5061014261025a565b6040518082815260200191505060405180910390f35b34801561016457600080fd5b5061016d610264565b6040518082815260200191505060405180910390f35b34801561018f57600080fd5b5061019861026e565b6040518082815260200191505060405180910390f35b606060008054600181600116156101000203166002900480601f0160208091040260200160405190810160405280929190818152602001828054600181600116156101000203166002900480156102465780601f1061021b57610100808354040283529160200191610246565b820191906000526020600020905b81548152906001019060200180831161022957829003601f168201915b5050505050905090565b6000600354905090565b6000600254905090565b6000600154905090565b600060045490509056fea165627a7a72305820ac45759d196a510793cecb6857cf5bd62c9b098c9a75482036a905969f6e21330029",
  "source": "pragma solidity ^0.5.0;\r\n\r\ncontract Class{\r\n    string private _name;\r\n    uint private _hitPoints;\r\n    uint private _agility;\r\n    uint private _intelligence;\r\n    uint private _strength;\r\n\r\n    constructor(string memory name, uint hitPoints, uint agility, uint intelligence, uint strength) public{\r\n        _name = name;\r\n        _hitPoints = hitPoints;\r\n        _agility = agility;\r\n        _intelligence = intelligence;\r\n        _strength = strength;\r\n    }\r\n\r\n    function getName() public view returns (string memory){\r\n        return _name;\r\n    }\r\n\r\n    function getHitPoints() public view returns (uint){\r\n        return _hitPoints;\r\n    }\r\n\r\n    function getAgility() public view returns (uint){\r\n        return _agility;\r\n    }\r\n\r\n    function getIntelligence() public view returns (uint){\r\n        return _intelligence;\r\n    }\r\n\r\n    function getStrength() public view returns (uint){\r\n        return _strength;\r\n    }\r\n}",
  "sourcePath": "C:\\Users\\Yichun\\Documents\\Projects\\Programming\\ethereum-game\\contracts\\Class.sol",
  "compiler": {
    "name": "solc",
    "version": "0.5.0+commit.1d4f565a.Emscripten.clang"
  },
  "schemaVersion": "3.0.1",
  "updatedAt": "2019-01-12T17:48:13.296Z",
  "devdoc": {
    "methods": {}
  },
  "userdoc": {
    "methods": {}
  }
}