{
  "contractName": "Cleave",
  "abi": [
    {
      "constant": true,
      "inputs": [],
      "name": "getName",
      "outputs": [
        {
          "name": "",
          "type": "string"
        }
      ],
      "payable": false,
      "stateMutability": "view",
      "type": "function"
    },
    {
      "constant": true,
      "inputs": [],
      "name": "getClass",
      "outputs": [
        {
          "name": "",
          "type": "uint256"
        }
      ],
      "payable": false,
      "stateMutability": "view",
      "type": "function"
    },
    {
      "constant": true,
      "inputs": [],
      "name": "getDamage",
      "outputs": [
        {
          "name": "",
          "type": "uint256"
        }
      ],
      "payable": false,
      "stateMutability": "view",
      "type": "function"
    },
    {
      "constant": true,
      "inputs": [],
      "name": "getSkillType",
      "outputs": [
        {
          "name": "",
          "type": "uint256"
        }
      ],
      "payable": false,
      "stateMutability": "view",
      "type": "function"
    },
    {
      "constant": true,
      "inputs": [],
      "name": "getLevelRequired",
      "outputs": [
        {
          "name": "",
          "type": "uint256"
        }
      ],
      "payable": false,
      "stateMutability": "view",
      "type": "function"
    }
  ],
  "bytecode": "0x60806040526040805190810160405280600681526020017f436c6561766500000000000000000000000000000000000000000000000000008152506001600660016002846000908051906020019061005892919061007f565b50826002819055508360018190555081600381905550806004819055505050505050610124565b828054600181600116156101000203166002900490600052602060002090601f016020900481019282601f106100c057805160ff19168380011785556100ee565b828001600101855582156100ee579182015b828111156100ed5782518255916020019190600101906100d2565b5b5090506100fb91906100ff565b5090565b61012191905b8082111561011d576000816000905550600101610105565b5090565b90565b6102a4806101336000396000f3fe60806040526004361061006d576000357c0100000000000000000000000000000000000000000000000000000000900463ffffffff16806317d7de7c1461007257806357e61ea4146101025780635bd81ab51461012d578063a89e834314610158578063b7c4c13d14610183575b600080fd5b34801561007e57600080fd5b506100876101ae565b6040518080602001828103825283818151815260200191508051906020019080838360005b838110156100c75780820151818401526020810190506100ac565b50505050905090810190601f1680156100f45780820380516001836020036101000a031916815260200191505b509250505060405180910390f35b34801561010e57600080fd5b50610117610250565b6040518082815260200191505060405180910390f35b34801561013957600080fd5b5061014261025a565b6040518082815260200191505060405180910390f35b34801561016457600080fd5b5061016d610264565b6040518082815260200191505060405180910390f35b34801561018f57600080fd5b5061019861026e565b6040518082815260200191505060405180910390f35b606060008054600181600116156101000203166002900480601f0160208091040260200160405190810160405280929190818152602001828054600181600116156101000203166002900480156102465780601f1061021b57610100808354040283529160200191610246565b820191906000526020600020905b81548152906001019060200180831161022957829003601f168201915b5050505050905090565b6000600354905090565b6000600254905090565b6000600454905090565b600060015490509056fea165627a7a72305820bdd4449b7dd6b697c899467ff41baa0cbfcd871f7760ae71693957f7ef84066c0029",
  "source": "pragma solidity ^0.5.0;\r\n\r\nimport \"../Skill.sol\";\r\n\r\ncontract Cleave is Skill(\"Cleave\", 1, 6, 1, 2){\r\n    \r\n}",
  "sourcePath": "C:\\Users\\Yichun\\Documents\\Projects\\Programming\\ethereum-game\\contracts\\Skills\\Cleave.sol",
  "compiler": {
    "name": "solc",
    "version": "0.5.0+commit.1d4f565a.Emscripten.clang"
  },
  "schemaVersion": "3.0.1",
  "updatedAt": "2019-01-13T08:05:18.545Z",
  "devdoc": {
    "methods": {}
  },
  "userdoc": {
    "methods": {}
  }
}