{
  "contractName": "CombatEngine",
  "abi": [
    {
      "constant": true,
      "inputs": [
        {
          "name": "attacker",
          "type": "address"
        },
        {
          "name": "defender",
          "type": "address"
        },
        {
          "name": "skill",
          "type": "address"
        }
      ],
      "name": "attack",
      "outputs": [
        {
          "name": "",
          "type": "uint256"
        }
      ],
      "payable": false,
      "stateMutability": "view",
      "type": "function"
    }
  ],
  "bytecode": "0x60806040526001600055600260015534801561001a57600080fd5b506108c08061002a6000396000f3fe608060405260043610610041576000357c0100000000000000000000000000000000000000000000000000000000900463ffffffff1680637bea12f514610046575b600080fd5b34801561005257600080fd5b506100d56004803603606081101561006957600080fd5b81019080803573ffffffffffffffffffffffffffffffffffffffff169060200190929190803573ffffffffffffffffffffffffffffffffffffffff169060200190929190803573ffffffffffffffffffffffffffffffffffffffff1690602001909291905050506100eb565b6040518082815260200191505060405180910390f35b600080548273ffffffffffffffffffffffffffffffffffffffff1663a89e83436040518163ffffffff167c010000000000000000000000000000000000000000000000000000000002815260040160206040518083038186803b15801561015157600080fd5b505afa158015610165573d6000803e3d6000fd5b505050506040513d602081101561017b57600080fd5b810190808051906020019092919050505014156104c05760048473ffffffffffffffffffffffffffffffffffffffff1663e0f8b6ad6040518163ffffffff167c010000000000000000000000000000000000000000000000000000000002815260040160206040518083038186803b1580156101f657600080fd5b505afa15801561020a573d6000803e3d6000fd5b505050506040513d602081101561022057600080fd5b810190808051906020019092919050505081151561023a57fe5b048373ffffffffffffffffffffffffffffffffffffffff1663f18ac3776040518163ffffffff167c010000000000000000000000000000000000000000000000000000000002815260040160206040518083038186803b15801561029d57600080fd5b505afa1580156102b1573d6000803e3d6000fd5b505050506040513d60208110156102c757600080fd5b810190808051906020019092919050505060028573ffffffffffffffffffffffffffffffffffffffff1663e0f8b6ad6040518163ffffffff167c010000000000000000000000000000000000000000000000000000000002815260040160206040518083038186803b15801561033c57600080fd5b505afa158015610350573d6000803e3d6000fd5b505050506040513d602081101561036657600080fd5b8101908080519060200190929190505050028673ffffffffffffffffffffffffffffffffffffffff1663e0f8b6ad6040518163ffffffff167c010000000000000000000000000000000000000000000000000000000002815260040160206040518083038186803b1580156103da57600080fd5b505afa1580156103ee573d6000803e3d6000fd5b505050506040513d602081101561040457600080fd5b810190808051906020019092919050505060028873ffffffffffffffffffffffffffffffffffffffff1663f18ac3776040518163ffffffff167c010000000000000000000000000000000000000000000000000000000002815260040160206040518083038186803b15801561047957600080fd5b505afa15801561048d573d6000803e3d6000fd5b505050506040513d60208110156104a357600080fd5b81019080805190602001909291905050500201030101905061088d565b6001548273ffffffffffffffffffffffffffffffffffffffff1663a89e83436040518163ffffffff167c010000000000000000000000000000000000000000000000000000000002815260040160206040518083038186803b15801561052557600080fd5b505afa158015610539573d6000803e3d6000fd5b505050506040513d602081101561054f57600080fd5b81019080805190602001909291905050501415610888578273ffffffffffffffffffffffffffffffffffffffff1663bb94ea676040518163ffffffff167c010000000000000000000000000000000000000000000000000000000002815260040160206040518083038186803b1580156105c857600080fd5b505afa1580156105dc573d6000803e3d6000fd5b505050506040513d60208110156105f257600080fd5b810190808051906020019092919050505060028473ffffffffffffffffffffffffffffffffffffffff1663e0f8b6ad6040518163ffffffff167c010000000000000000000000000000000000000000000000000000000002815260040160206040518083038186803b15801561066757600080fd5b505afa15801561067b573d6000803e3d6000fd5b505050506040513d602081101561069157600080fd5b8101908080519060200190929190505050028373ffffffffffffffffffffffffffffffffffffffff16635bd81ab56040518163ffffffff167c010000000000000000000000000000000000000000000000000000000002815260040160206040518083038186803b15801561070557600080fd5b505afa158015610719573d6000803e3d6000fd5b505050506040513d602081101561072f57600080fd5b81019080805190602001909291905050508673ffffffffffffffffffffffffffffffffffffffff1663e0f8b6ad6040518163ffffffff167c010000000000000000000000000000000000000000000000000000000002815260040160206040518083038186803b1580156107a257600080fd5b505afa1580156107b6573d6000803e3d6000fd5b505050506040513d60208110156107cc57600080fd5b810190808051906020019092919050505060028873ffffffffffffffffffffffffffffffffffffffff1663bb94ea676040518163ffffffff167c010000000000000000000000000000000000000000000000000000000002815260040160206040518083038186803b15801561084157600080fd5b505afa158015610855573d6000803e3d6000fd5b505050506040513d602081101561086b57600080fd5b81019080805190602001909291905050500201010301905061088d565b600090505b939250505056fea165627a7a72305820b945af07784fa3bf41819d5446b5d35be31e292fe391e17f0b92942b3d1e9e220029",
  "source": "pragma solidity ^0.5.0;\r\n\r\nimport \"./Game.sol\";\r\nimport \"./Character.sol\";\r\nimport \"./Skill.sol\";\r\nimport \"./Libraries/SafeMath.sol\";\r\n\r\ncontract CombatEngine{\r\n    using SafeMath for uint;\r\n\r\n    uint private PHYSICAL_SKILL = 1;\r\n    uint private MAGICAL_SKILL = 2;\r\n\r\n\r\n    function attack(Character attacker, Character defender, Skill skill) public view returns (uint){\r\n        //strength is defence, agility is avoidance\r\n        if (skill.getSkillType() == PHYSICAL_SKILL){\r\n            return (attacker.getStrength() * 2 + attacker.getAgility() -\r\n                    defender.getAgility() * 2 + defender.getStrength() + attacker.getAgility() / 4);\r\n        } else if (skill.getSkillType() == MAGICAL_SKILL){\r\n            return (attacker.getIntelligence() * 2 + attacker.getAgility() + skill.getDamage() - \r\n                    defender.getAgility() * 2 + defender.getIntelligence());\r\n        }\r\n        return 0;\r\n    }\r\n}",
  "sourcePath": "C:\\Users\\Yichun\\Documents\\Projects\\Programming\\ethereum-game\\contracts\\CombatEngine.sol",
  "compiler": {
    "name": "solc",
    "version": "0.5.0+commit.1d4f565a.Emscripten.clang"
  },
  "schemaVersion": "3.0.1",
  "updatedAt": "2019-01-13T08:05:18.553Z",
  "devdoc": {
    "methods": {}
  },
  "userdoc": {
    "methods": {}
  }
}