{
  "contractName": "Game",
  "abi": [
    {
      "inputs": [],
      "payable": false,
      "stateMutability": "nonpayable",
      "type": "constructor"
    },
    {
      "constant": false,
      "inputs": [
        {
          "name": "name",
          "type": "string"
        },
        {
          "name": "class",
          "type": "string"
        }
      ],
      "name": "createCharacter",
      "outputs": [],
      "payable": false,
      "stateMutability": "nonpayable",
      "type": "function"
    },
    {
      "constant": true,
      "inputs": [],
      "name": "getCharacter",
      "outputs": [
        {
          "name": "",
          "type": "address"
        }
      ],
      "payable": false,
      "stateMutability": "view",
      "type": "function"
    },
    {
      "constant": false,
      "inputs": [
        {
          "name": "key",
          "type": "string"
        },
        {
          "name": "class",
          "type": "address"
        }
      ],
      "name": "addClass",
      "outputs": [],
      "payable": false,
      "stateMutability": "nonpayable",
      "type": "function"
    },
    {
      "constant": false,
      "inputs": [
        {
          "name": "key",
          "type": "string"
        }
      ],
      "name": "removeClass",
      "outputs": [],
      "payable": false,
      "stateMutability": "nonpayable",
      "type": "function"
    }
  ],
  "bytecode": "0x608060405234801561001057600080fd5b50336000806101000a81548173ffffffffffffffffffffffffffffffffffffffff021916908373ffffffffffffffffffffffffffffffffffffffff160217905550610ea2806100606000396000f3fe608060405260043610610062576000357c0100000000000000000000000000000000000000000000000000000000900463ffffffff1680631b666d80146100675780631e8237df1461014f578063375c5881146101a65780636d81b8dd14610305575b600080fd5b34801561007357600080fd5b5061014d6004803603604081101561008a57600080fd5b81019080803590602001906401000000008111156100a757600080fd5b8201836020820111156100b957600080fd5b803590602001918460018302840111640100000000831117156100db57600080fd5b91908080601f016020809104026020016040519081016040528093929190818152602001838380828437600081840152601f19601f820116905080830192505050505050509192919290803573ffffffffffffffffffffffffffffffffffffffff1690602001909291905050506103cd565b005b34801561015b57600080fd5b5061016461053f565b604051808273ffffffffffffffffffffffffffffffffffffffff1673ffffffffffffffffffffffffffffffffffffffff16815260200191505060405180910390f35b3480156101b257600080fd5b50610303600480360360408110156101c957600080fd5b81019080803590602001906401000000008111156101e657600080fd5b8201836020820111156101f857600080fd5b8035906020019184600183028401116401000000008311171561021a57600080fd5b91908080601f016020809104026020016040519081016040528093929190818152602001838380828437600081840152601f19601f8201169050808301925050505050505091929192908035906020019064010000000081111561027d57600080fd5b82018360208201111561028f57600080fd5b803590602001918460018302840111640100000000831117156102b157600080fd5b91908080601f016020809104026020016040519081016040528093929190818152602001838380828437600081840152601f19601f8201169050808301925050505050505091929192905050506105a6565b005b34801561031157600080fd5b506103cb6004803603602081101561032857600080fd5b810190808035906020019064010000000081111561034557600080fd5b82018360208201111561035757600080fd5b8035906020019184600183028401116401000000008311171561037957600080fd5b91908080601f016020809104026020016040519081016040528093929190818152602001838380828437600081840152601f19601f82011690508083019250505050505050919291929050505061077b565b005b3373ffffffffffffffffffffffffffffffffffffffff166000809054906101000a900473ffffffffffffffffffffffffffffffffffffffff1673ffffffffffffffffffffffffffffffffffffffff16141515610491576040517f08c379a00000000000000000000000000000000000000000000000000000000081526004018080602001828103825260148152602001807f53656e646572206973206e6f74206f776e64657200000000000000000000000081525060200191505060405180910390fd5b806002836040518082805190602001908083835b6020831015156104ca57805182526020820191506020810190506020830392506104a5565b6001836020036101000a038019825116818451168082178552505050505050905001915050908152602001604051809103902060006101000a81548173ffffffffffffffffffffffffffffffffffffffff021916908373ffffffffffffffffffffffffffffffffffffffff1602179055505050565b6000600160003373ffffffffffffffffffffffffffffffffffffffff1673ffffffffffffffffffffffffffffffffffffffff16815260200190815260200160002060009054906101000a900473ffffffffffffffffffffffffffffffffffffffff16905090565b816002826040518082805190602001908083835b6020831015156105df57805182526020820191506020810190506020830392506105ba565b6001836020036101000a038019825116818451168082178552505050505050905001915050908152602001604051809103902060009054906101000a900473ffffffffffffffffffffffffffffffffffffffff1661063b6108d0565b80806020018373ffffffffffffffffffffffffffffffffffffffff1673ffffffffffffffffffffffffffffffffffffffff168152602001828103825284818151815260200191508051906020019080838360005b838110156106aa57808201518184015260208101905061068f565b50505050905090810190601f1680156106d75780820380516001836020036101000a031916815260200191505b509350505050604051809103906000f0801580156106f9573d6000803e3d6000fd5b50600160003373ffffffffffffffffffffffffffffffffffffffff1673ffffffffffffffffffffffffffffffffffffffff16815260200190815260200160002060006101000a81548173ffffffffffffffffffffffffffffffffffffffff021916908373ffffffffffffffffffffffffffffffffffffffff1602179055505050565b3373ffffffffffffffffffffffffffffffffffffffff166000809054906101000a900473ffffffffffffffffffffffffffffffffffffffff1673ffffffffffffffffffffffffffffffffffffffff1614151561083f576040517f08c379a00000000000000000000000000000000000000000000000000000000081526004018080602001828103825260148152602001807f53656e646572206973206e6f74206f776e64657200000000000000000000000081525060200191505060405180910390fd5b6002816040518082805190602001908083835b6020831015156108775780518252602082019150602081019050602083039250610852565b6001836020036101000a038019825116818451168082178552505050505050905001915050908152602001604051809103902060006101000a81549073ffffffffffffffffffffffffffffffffffffffff021916905550565b604051610596806108e18339019056fe608060405234801561001057600080fd5b506040516105963803806105968339810180604052604081101561003357600080fd5b81019080805164010000000081111561004b57600080fd5b8281019050602081018481111561006157600080fd5b815185600182028301116401000000008211171561007e57600080fd5b50509291906020018051906020019092919050505081600090805190602001906100a99291906100f2565b5080600160006101000a81548173ffffffffffffffffffffffffffffffffffffffff021916908373ffffffffffffffffffffffffffffffffffffffff1602179055505050610197565b828054600181600116156101000203166002900490600052602060002090601f016020900481019282601f1061013357805160ff1916838001178555610161565b82800160010185558215610161579182015b82811115610160578251825591602001919060010190610145565b5b50905061016e9190610172565b5090565b61019491905b80821115610190576000816000905550600101610178565b5090565b90565b6103f0806101a66000396000f3fe608060405260043610610078576000357c0100000000000000000000000000000000000000000000000000000000900463ffffffff16806317d7de7c1461007d57806357e61ea41461010d578063bb94ea6714610164578063e0f8b6ad1461018f578063ee386847146101ba578063f18ac377146101e5575b600080fd5b34801561008957600080fd5b50610092610210565b6040518080602001828103825283818151815260200191508051906020019080838360005b838110156100d25780820151818401526020810190506100b7565b50505050905090810190601f1680156100ff5780820380516001836020036101000a031916815260200191505b509250505060405180910390f35b34801561011957600080fd5b506101226102b2565b604051808273ffffffffffffffffffffffffffffffffffffffff1673ffffffffffffffffffffffffffffffffffffffff16815260200191505060405180910390f35b34801561017057600080fd5b506101796102dc565b6040518082815260200191505060405180910390f35b34801561019b57600080fd5b506101a46102e6565b6040518082815260200191505060405180910390f35b3480156101c657600080fd5b506101cf6102f0565b6040518082815260200191505060405180910390f35b3480156101f157600080fd5b506101fa6103ba565b6040518082815260200191505060405180910390f35b606060008054600181600116156101000203166002900480601f0160208091040260200160405190810160405280929190818152602001828054600181600116156101000203166002900480156102a85780601f1061027d576101008083540402835291602001916102a8565b820191906000526020600020905b81548152906001019060200180831161028b57829003601f168201915b5050505050905090565b6000600160009054906101000a900473ffffffffffffffffffffffffffffffffffffffff16905090565b6000600454905090565b6000600354905090565b6000600160009054906101000a900473ffffffffffffffffffffffffffffffffffffffff1673ffffffffffffffffffffffffffffffffffffffff1663ee3868476040518163ffffffff167c010000000000000000000000000000000000000000000000000000000002815260040160206040518083038186803b15801561037657600080fd5b505afa15801561038a573d6000803e3d6000fd5b505050506040513d60208110156103a057600080fd5b810190808051906020019092919050505060025401905090565b600060055490509056fea165627a7a7230582093d0f6c2b1494e457d85dbf56c1029dfefc7105957a6712f14d78e356923f3ec0029a165627a7a723058202532af13d77f16a932255348daf63a335c0c9443cf43ee47e8d7ec12cd4dfdac0029",
  "source": "pragma solidity ^0.5.0;\r\n\r\nimport \"./Character.sol\";\r\nimport \"./Class.sol\";\r\n\r\ncontract Game{\r\n\r\n    address private _owner;\r\n    mapping(address => Character) private _characters;\r\n    mapping(string => Class) private _classes;\r\n\r\n    //require() means if condition not true, throw exception\r\n    //modifier is a condition check for a function\r\n    modifier isOwner{\r\n        require(_owner==msg.sender, \"Sender is not ownder\");\r\n        _; //this returns the flow of execution to the original function that is annotated (condition-orientated programming)\r\n    }\r\n\r\n    constructor() public{\r\n        _owner = msg.sender;\r\n    }\r\n\r\n    /* notes to self:\r\n    msg.sender is the owner of the contract\r\n\r\n    \"memory\" means the data is not in storage.\r\n    It creates space for the var at method runtime, \r\n    guaranteeing the size and structure for future use in the method \r\n\r\n    The Ethereum Virtual Machine has three areas where it can store items:\r\n\r\n    The first is “storage”, where all the contract state variables reside. \r\n    Every contract has its own storage and it is persistent between function calls and quite expensive to use.\r\n\r\n    The second is “memory”, this is used to hold temporary values. \r\n    It is erased between (external) function calls and is cheaper to use.\r\n\r\n    The third one is the stack, which is used to hold small local variables. \r\n    It is almost free to use, but can only hold a limited amount of values.\r\n    */\r\n\r\n    function createCharacter(string memory name, string memory class) public {\r\n        _characters[msg.sender] = new Character(name, _classes[class]);\r\n    }\r\n\r\n    function getCharacter() public view returns (Character){\r\n        return _characters[msg.sender];\r\n    }\r\n\r\n    //\"string memory key\" to store def of class as key value pair to ensure picking a valid class\r\n    function addClass(string memory key, Class class) public isOwner{\r\n        _classes[key] = class;\r\n    }\r\n\r\n    function removeClass(string memory key) public isOwner{\r\n        delete _classes[key];\r\n    }\r\n}",
  "sourcePath": "C:/Users/Yichun/Documents/Projects/Programming/ethereum-game/contracts/Game.sol",
  "compiler": {
    "name": "solc",
    "version": "0.5.0+commit.1d4f565a.Emscripten.clang"
  },
  "schemaVersion": "3.0.1",
  "updatedAt": "2019-01-12T17:48:01.128Z",
  "devdoc": {
    "methods": {}
  },
  "userdoc": {
    "methods": {}
  }
}