{
  "contractName": "Game",
  "abi": [
    {
      "inputs": [],
      "payable": false,
      "stateMutability": "nonpayable",
      "type": "constructor"
    },
    {
      "constant": false,
      "inputs": [
        {
          "name": "name",
          "type": "string"
        },
        {
          "name": "class",
          "type": "string"
        }
      ],
      "name": "createCharacter",
      "outputs": [],
      "payable": false,
      "stateMutability": "nonpayable",
      "type": "function"
    },
    {
      "constant": true,
      "inputs": [],
      "name": "getCharacter",
      "outputs": [
        {
          "name": "",
          "type": "address"
        }
      ],
      "payable": false,
      "stateMutability": "view",
      "type": "function"
    },
    {
      "constant": false,
      "inputs": [
        {
          "name": "key",
          "type": "string"
        },
        {
          "name": "class",
          "type": "address"
        }
      ],
      "name": "addClass",
      "outputs": [],
      "payable": false,
      "stateMutability": "nonpayable",
      "type": "function"
    },
    {
      "constant": false,
      "inputs": [
        {
          "name": "key",
          "type": "string"
        }
      ],
      "name": "removeClass",
      "outputs": [],
      "payable": false,
      "stateMutability": "nonpayable",
      "type": "function"
    },
    {
      "constant": true,
      "inputs": [
        {
          "name": "character",
          "type": "address"
        },
        {
          "name": "skill",
          "type": "address"
        }
      ],
      "name": "attack",
      "outputs": [
        {
          "name": "",
          "type": "uint256"
        }
      ],
      "payable": false,
      "stateMutability": "view",
      "type": "function"
    }
  ],
  "bytecode": "0x608060405234801561001057600080fd5b50336000806101000a81548173ffffffffffffffffffffffffffffffffffffffff021916908373ffffffffffffffffffffffffffffffffffffffff160217905550611b55806100606000396000f3fe60806040526004361061006d576000357c0100000000000000000000000000000000000000000000000000000000900463ffffffff1680631b666d80146100725780631e8237df1461015a578063375c5881146101b15780633c48664c146103105780636d81b8dd14610395575b600080fd5b34801561007e57600080fd5b506101586004803603604081101561009557600080fd5b81019080803590602001906401000000008111156100b257600080fd5b8201836020820111156100c457600080fd5b803590602001918460018302840111640100000000831117156100e657600080fd5b91908080601f016020809104026020016040519081016040528093929190818152602001838380828437600081840152601f19601f820116905080830192505050505050509192919290803573ffffffffffffffffffffffffffffffffffffffff16906020019092919050505061045d565b005b34801561016657600080fd5b5061016f6105cf565b604051808273ffffffffffffffffffffffffffffffffffffffff1673ffffffffffffffffffffffffffffffffffffffff16815260200191505060405180910390f35b3480156101bd57600080fd5b5061030e600480360360408110156101d457600080fd5b81019080803590602001906401000000008111156101f157600080fd5b82018360208201111561020357600080fd5b8035906020019184600183028401116401000000008311171561022557600080fd5b91908080601f016020809104026020016040519081016040528093929190818152602001838380828437600081840152601f19601f8201169050808301925050505050505091929192908035906020019064010000000081111561028857600080fd5b82018360208201111561029a57600080fd5b803590602001918460018302840111640100000000831117156102bc57600080fd5b91908080601f016020809104026020016040519081016040528093929190818152602001838380828437600081840152601f19601f820116905080830192505050505050509192919290505050610636565b005b34801561031c57600080fd5b5061037f6004803603604081101561033357600080fd5b81019080803573ffffffffffffffffffffffffffffffffffffffff169060200190929190803573ffffffffffffffffffffffffffffffffffffffff16906020019092919050505061080b565b6040518082815260200191505060405180910390f35b3480156103a157600080fd5b5061045b600480360360208110156103b857600080fd5b81019080803590602001906401000000008111156103d557600080fd5b8201836020820111156103e757600080fd5b8035906020019184600183028401116401000000008311171561040957600080fd5b91908080601f016020809104026020016040519081016040528093929190818152602001838380828437600081840152601f19601f8201169050808301925050505050505091929192905050506109d1565b005b3373ffffffffffffffffffffffffffffffffffffffff166000809054906101000a900473ffffffffffffffffffffffffffffffffffffffff1673ffffffffffffffffffffffffffffffffffffffff16141515610521576040517f08c379a00000000000000000000000000000000000000000000000000000000081526004018080602001828103825260148152602001807f53656e646572206973206e6f74206f776e64657200000000000000000000000081525060200191505060405180910390fd5b806002836040518082805190602001908083835b60208310151561055a5780518252602082019150602081019050602083039250610535565b6001836020036101000a038019825116818451168082178552505050505050905001915050908152602001604051809103902060006101000a81548173ffffffffffffffffffffffffffffffffffffffff021916908373ffffffffffffffffffffffffffffffffffffffff1602179055505050565b6000600160003373ffffffffffffffffffffffffffffffffffffffff1673ffffffffffffffffffffffffffffffffffffffff16815260200190815260200160002060009054906101000a900473ffffffffffffffffffffffffffffffffffffffff16905090565b816002826040518082805190602001908083835b60208310151561066f578051825260208201915060208101905060208303925061064a565b6001836020036101000a038019825116818451168082178552505050505050905001915050908152602001604051809103902060009054906101000a900473ffffffffffffffffffffffffffffffffffffffff166106cb610b26565b80806020018373ffffffffffffffffffffffffffffffffffffffff1673ffffffffffffffffffffffffffffffffffffffff168152602001828103825284818151815260200191508051906020019080838360005b8381101561073a57808201518184015260208101905061071f565b50505050905090810190601f1680156107675780820380516001836020036101000a031916815260200191505b509350505050604051809103906000f080158015610789573d6000803e3d6000fd5b50600160003373ffffffffffffffffffffffffffffffffffffffff1673ffffffffffffffffffffffffffffffffffffffff16815260200190815260200160002060006101000a81548173ffffffffffffffffffffffffffffffffffffffff021916908373ffffffffffffffffffffffffffffffffffffffff1602179055505050565b6000600360009054906101000a900473ffffffffffffffffffffffffffffffffffffffff1673ffffffffffffffffffffffffffffffffffffffff16637bea12f5600160003373ffffffffffffffffffffffffffffffffffffffff1673ffffffffffffffffffffffffffffffffffffffff16815260200190815260200160002060009054906101000a900473ffffffffffffffffffffffffffffffffffffffff1685856040518463ffffffff167c0100000000000000000000000000000000000000000000000000000000028152600401808473ffffffffffffffffffffffffffffffffffffffff1673ffffffffffffffffffffffffffffffffffffffff1681526020018373ffffffffffffffffffffffffffffffffffffffff1673ffffffffffffffffffffffffffffffffffffffff1681526020018273ffffffffffffffffffffffffffffffffffffffff1673ffffffffffffffffffffffffffffffffffffffff168152602001935050505060206040518083038186803b15801561098f57600080fd5b505afa1580156109a3573d6000803e3d6000fd5b505050506040513d60208110156109b957600080fd5b81019080805190602001909291905050505092915050565b3373ffffffffffffffffffffffffffffffffffffffff166000809054906101000a900473ffffffffffffffffffffffffffffffffffffffff1673ffffffffffffffffffffffffffffffffffffffff16141515610a95576040517f08c379a00000000000000000000000000000000000000000000000000000000081526004018080602001828103825260148152602001807f53656e646572206973206e6f74206f776e64657200000000000000000000000081525060200191505060405180910390fd5b6002816040518082805190602001908083835b602083101515610acd5780518252602082019150602081019050602083039250610aa8565b6001836020036101000a038019825116818451168082178552505050505050905001915050908152602001604051809103902060006101000a81549073ffffffffffffffffffffffffffffffffffffffff021916905550565b604051610ff380610b378339019056fe60806040523480156200001157600080fd5b5060405162000ff338038062000ff3833981018060405260408110156200003757600080fd5b8101908080516401000000008111156200005057600080fd5b828101905060208101848111156200006757600080fd5b81518560018202830111640100000000821117156200008557600080fd5b5050929190602001805190602001909291905050508160019080519060200190620000b292919062000158565b5080600260006101000a81548173ffffffffffffffffffffffffffffffffffffffff021916908373ffffffffffffffffffffffffffffffffffffffff160217905550336000806101000a81548173ffffffffffffffffffffffffffffffffffffffff021916908373ffffffffffffffffffffffffffffffffffffffff1602179055506001600960006101000a81548160ff021916908360ff160217905550505062000207565b828054600181600116156101000203166002900490600052602060002090601f016020900481019282601f106200019b57805160ff1916838001178555620001cc565b82800160010185558215620001cc579182015b82811115620001cb578251825591602001919060010190620001ae565b5b509050620001db9190620001df565b5090565b6200020491905b8082111562000200576000816000905550600101620001e6565b5090565b90565b610ddc80620002176000396000f3fe6080604052600436106100db576000357c0100000000000000000000000000000000000000000000000000000000900463ffffffff16806317d7de7c146100e057806327a5428b14610170578063282b2c00146101ab57806339abdee1146101e6578063475502be1461022157806357e61ea4146102525780637e7849ff146102a9578063a5985e8c146102e4578063af9cf6571461030f578063b06d759d1461034a578063bb94ea6714610385578063cdb986cc146103b0578063e0f8b6ad146103db578063ee38684714610406578063f18ac37714610431575b600080fd5b3480156100ec57600080fd5b506100f561045c565b6040518080602001828103825283818151815260200191508051906020019080838360005b8381101561013557808201518184015260208101905061011a565b50505050905090810190601f1680156101625780820380516001836020036101000a031916815260200191505b509250505060405180910390f35b34801561017c57600080fd5b506101a96004803603602081101561019357600080fd5b81019080803590602001909291905050506104fe565b005b3480156101b757600080fd5b506101e4600480360360208110156101ce57600080fd5b81019080803590602001909291905050506105cc565b005b3480156101f257600080fd5b5061021f6004803603602081101561020957600080fd5b810190808035906020019092919050505061069a565b005b34801561022d57600080fd5b50610236610768565b604051808260ff1660ff16815260200191505060405180910390f35b34801561025e57600080fd5b5061026761077f565b604051808273ffffffffffffffffffffffffffffffffffffffff1673ffffffffffffffffffffffffffffffffffffffff16815260200191505060405180910390f35b3480156102b557600080fd5b506102e2600480360360208110156102cc57600080fd5b81019080803590602001909291905050506107a9565b005b3480156102f057600080fd5b506102f9610877565b6040518082815260200191505060405180910390f35b34801561031b57600080fd5b506103486004803603602081101561033257600080fd5b8101908080359060200190929190505050610881565b005b34801561035657600080fd5b506103836004803603602081101561036d57600080fd5b810190808035906020019092919050505061094f565b005b34801561039157600080fd5b5061039a610a1d565b6040518082815260200191505060405180910390f35b3480156103bc57600080fd5b506103c5610af7565b6040518082815260200191505060405180910390f35b3480156103e757600080fd5b506103f0610b01565b6040518082815260200191505060405180910390f35b34801561041257600080fd5b5061041b610bdb565b6040518082815260200191505060405180910390f35b34801561043d57600080fd5b50610446610cb5565b6040518082815260200191505060405180910390f35b606060018054600181600116156101000203166002900480601f0160208091040260200160405190810160405280929190818152602001828054600181600116156101000203166002900480156104f45780601f106104c9576101008083540402835291602001916104f4565b820191906000526020600020905b8154815290600101906020018083116104d757829003601f168201915b5050505050905090565b6000809054906101000a900473ffffffffffffffffffffffffffffffffffffffff1673ffffffffffffffffffffffffffffffffffffffff163373ffffffffffffffffffffffffffffffffffffffff161415156105c2576040517f08c379a00000000000000000000000000000000000000000000000000000000081526004018080602001828103825260158152602001807f52657175657374206e6f742066726f6d2067616d65000000000000000000000081525060200191505060405180910390fd5b8060088190555050565b6000809054906101000a900473ffffffffffffffffffffffffffffffffffffffff1673ffffffffffffffffffffffffffffffffffffffff163373ffffffffffffffffffffffffffffffffffffffff16141515610690576040517f08c379a00000000000000000000000000000000000000000000000000000000081526004018080602001828103825260158152602001807f52657175657374206e6f742066726f6d2067616d65000000000000000000000081525060200191505060405180910390fd5b8060078190555050565b6000809054906101000a900473ffffffffffffffffffffffffffffffffffffffff1673ffffffffffffffffffffffffffffffffffffffff163373ffffffffffffffffffffffffffffffffffffffff1614151561075e576040517f08c379a00000000000000000000000000000000000000000000000000000000081526004018080602001828103825260158152602001807f52657175657374206e6f742066726f6d2067616d65000000000000000000000081525060200191505060405180910390fd5b8060058190555050565b6000600960009054906101000a900460ff16905090565b6000600260009054906101000a900473ffffffffffffffffffffffffffffffffffffffff16905090565b6000809054906101000a900473ffffffffffffffffffffffffffffffffffffffff1673ffffffffffffffffffffffffffffffffffffffff163373ffffffffffffffffffffffffffffffffffffffff1614151561086d576040517f08c379a00000000000000000000000000000000000000000000000000000000081526004018080602001828103825260158152602001807f52657175657374206e6f742066726f6d2067616d65000000000000000000000081525060200191505060405180910390fd5b8060068190555050565b6000600854905090565b6000809054906101000a900473ffffffffffffffffffffffffffffffffffffffff1673ffffffffffffffffffffffffffffffffffffffff163373ffffffffffffffffffffffffffffffffffffffff16141515610945576040517f08c379a00000000000000000000000000000000000000000000000000000000081526004018080602001828103825260158152602001807f52657175657374206e6f742066726f6d2067616d65000000000000000000000081525060200191505060405180910390fd5b8060038190555050565b6000809054906101000a900473ffffffffffffffffffffffffffffffffffffffff1673ffffffffffffffffffffffffffffffffffffffff163373ffffffffffffffffffffffffffffffffffffffff16141515610a13576040517f08c379a00000000000000000000000000000000000000000000000000000000081526004018080602001828103825260158152602001807f52657175657374206e6f742066726f6d2067616d65000000000000000000000081525060200191505060405180910390fd5b8060048190555050565b6000610af2600260009054906101000a900473ffffffffffffffffffffffffffffffffffffffff1673ffffffffffffffffffffffffffffffffffffffff1663bb94ea676040518163ffffffff167c010000000000000000000000000000000000000000000000000000000002815260040160206040518083038186803b158015610aa657600080fd5b505afa158015610aba573d6000803e3d6000fd5b505050506040513d6020811015610ad057600080fd5b8101908080519060200190929190505050600554610d8f90919063ffffffff16565b905090565b6000600754905090565b6000610bd6600260009054906101000a900473ffffffffffffffffffffffffffffffffffffffff1673ffffffffffffffffffffffffffffffffffffffff1663e0f8b6ad6040518163ffffffff167c010000000000000000000000000000000000000000000000000000000002815260040160206040518083038186803b158015610b8a57600080fd5b505afa158015610b9e573d6000803e3d6000fd5b505050506040513d6020811015610bb457600080fd5b8101908080519060200190929190505050600454610d8f90919063ffffffff16565b905090565b6000610cb0600260009054906101000a900473ffffffffffffffffffffffffffffffffffffffff1673ffffffffffffffffffffffffffffffffffffffff1663ee3868476040518163ffffffff167c010000000000000000000000000000000000000000000000000000000002815260040160206040518083038186803b158015610c6457600080fd5b505afa158015610c78573d6000803e3d6000fd5b505050506040513d6020811015610c8e57600080fd5b8101908080519060200190929190505050600354610d8f90919063ffffffff16565b905090565b6000610d8a600260009054906101000a900473ffffffffffffffffffffffffffffffffffffffff1673ffffffffffffffffffffffffffffffffffffffff1663f18ac3776040518163ffffffff167c010000000000000000000000000000000000000000000000000000000002815260040160206040518083038186803b158015610d3e57600080fd5b505afa158015610d52573d6000803e3d6000fd5b505050506040513d6020811015610d6857600080fd5b8101908080519060200190929190505050600654610d8f90919063ffffffff16565b905090565b6000808284019050838110151515610da657600080fd5b809150509291505056fea165627a7a723058206a977d28b3aafef394ea794e4f7921b364240d00a54110802b9a16dfd7f613a20029a165627a7a7230582052e2fd7b639b219578c57e46a27745dd162a0ff16fc9219af5e235360ec61f3a0029",
  "source": "pragma solidity ^0.5.0;\r\n\r\nimport \"./Character.sol\";\r\nimport \"./Skill.sol\";\r\nimport \"./Class.sol\";\r\nimport \"./CombatEngine.sol\";\r\n\r\ncontract Game{\r\n\r\n    address private _owner;\r\n    mapping(address => Character) private _characters;\r\n    mapping(string => Class) private _classes;\r\n\r\n    CombatEngine private _combatEngine;\r\n\r\n    //require() means if condition not true, throw exception\r\n    //modifier is a condition check for a function\r\n    modifier isOwner{\r\n        require(_owner==msg.sender, \"Sender is not ownder\");\r\n        _; //this returns the flow of execution to the original function that is annotated (condition-orientated programming)\r\n    }\r\n\r\n    //this check if character exists for the address\r\n    modifier hasCharacter{\r\n        require(_characters[msg.sender].isExist() == 1, \"Character does not exist for address\");\r\n        _;\r\n    }\r\n\r\n    constructor() public{\r\n        _owner = msg.sender;\r\n    }\r\n\r\n    /* notes to self:\r\n    msg.sender is the owner of the contract\r\n\r\n    \"memory\" means the data is not in storage.\r\n    It creates space for the var at method runtime, \r\n    guaranteeing the size and structure for future use in the method \r\n\r\n    The Ethereum Virtual Machine has three areas where it can store items:\r\n\r\n    The first is “storage”, where all the contract state variables reside. \r\n    Every contract has its own storage and it is persistent between function calls and quite expensive to use.\r\n\r\n    The second is “memory”, this is used to hold temporary values. \r\n    It is erased between (external) function calls and is cheaper to use.\r\n\r\n    The third one is the stack, which is used to hold small local variables. \r\n    It is almost free to use, but can only hold a limited amount of values.\r\n    */\r\n\r\n    function createCharacter(string memory name, string memory class) public {\r\n        _characters[msg.sender] = new Character(name, _classes[class]);\r\n    }\r\n\r\n    function getCharacter() public view returns (Character){\r\n        return _characters[msg.sender];\r\n    }\r\n\r\n    //\"string memory key\" to store def of class as key value pair to ensure picking a valid class\r\n    function addClass(string memory key, Class class) public isOwner{\r\n        _classes[key] = class;\r\n    }\r\n\r\n    function removeClass(string memory key) public isOwner{\r\n        delete _classes[key];\r\n    }\r\n\r\n    function attack (Character character, Skill skill) public view returns (uint){\r\n        _combatEngine.attack(_characters[msg.sender], character, skill);\r\n    }\r\n}",
  "sourcePath": "C:\\Users\\Yichun\\Documents\\Projects\\Programming\\ethereum-game\\contracts\\Game.sol",
  "compiler": {
    "name": "solc",
    "version": "0.5.0+commit.1d4f565a.Emscripten.clang"
  },
  "schemaVersion": "3.0.1",
  "updatedAt": "2019-01-13T08:05:18.558Z",
  "devdoc": {
    "methods": {}
  },
  "userdoc": {
    "methods": {}
  }
}