{
  "contractName": "Rogue",
  "abi": [
    {
      "constant": true,
      "inputs": [],
      "name": "getName",
      "outputs": [
        {
          "name": "",
          "type": "string"
        }
      ],
      "payable": false,
      "stateMutability": "view",
      "type": "function"
    },
    {
      "constant": true,
      "inputs": [],
      "name": "getClass",
      "outputs": [
        {
          "name": "",
          "type": "uint256"
        }
      ],
      "payable": false,
      "stateMutability": "view",
      "type": "function"
    },
    {
      "constant": true,
      "inputs": [],
      "name": "getIntelligence",
      "outputs": [
        {
          "name": "",
          "type": "uint256"
        }
      ],
      "payable": false,
      "stateMutability": "view",
      "type": "function"
    },
    {
      "constant": true,
      "inputs": [],
      "name": "getAgility",
      "outputs": [
        {
          "name": "",
          "type": "uint256"
        }
      ],
      "payable": false,
      "stateMutability": "view",
      "type": "function"
    },
    {
      "constant": true,
      "inputs": [],
      "name": "getHitPoints",
      "outputs": [
        {
          "name": "",
          "type": "uint256"
        }
      ],
      "payable": false,
      "stateMutability": "view",
      "type": "function"
    },
    {
      "constant": true,
      "inputs": [],
      "name": "getStrength",
      "outputs": [
        {
          "name": "",
          "type": "uint256"
        }
      ],
      "payable": false,
      "stateMutability": "view",
      "type": "function"
    },
    {
      "inputs": [],
      "payable": false,
      "stateMutability": "nonpayable",
      "type": "constructor"
    }
  ],
  "bytecode": "0x608060405234801561001057600080fd5b506040805190810160405280600581526020017f526f677565000000000000000000000000000000000000000000000000000000815250600f600a6005806003856000908051906020019061006692919061011f565b508460018190555083600281905550826003819055508160048190555080600581905550505050505050600661009a61019f565b604051809103906000f0801580156100b6573d6000803e3d6000fd5b5090806001815401808255809150509060018203906000526020600020016000909192909190916101000a81548173ffffffffffffffffffffffffffffffffffffffff021916908373ffffffffffffffffffffffffffffffffffffffff160217905550506101d4565b828054600181600116156101000203166002900490600052602060002090601f016020900481019282601f1061016057805160ff191683800117855561018e565b8280016001018555821561018e579182015b8281111561018d578251825591602001919060010190610172565b5b50905061019b91906101af565b5090565b6040516103d7806104c783390190565b6101d191905b808211156101cd5760008160009055506001016101b5565b5090565b90565b6102e4806101e36000396000f3fe608060405260043610610078576000357c0100000000000000000000000000000000000000000000000000000000900463ffffffff16806317d7de7c1461007d57806357e61ea41461010d578063bb94ea6714610138578063e0f8b6ad14610163578063ee3868471461018e578063f18ac377146101b9575b600080fd5b34801561008957600080fd5b506100926101e4565b6040518080602001828103825283818151815260200191508051906020019080838360005b838110156100d25780820151818401526020810190506100b7565b50505050905090810190601f1680156100ff5780820380516001836020036101000a031916815260200191505b509250505060405180910390f35b34801561011957600080fd5b50610122610286565b6040518082815260200191505060405180910390f35b34801561014457600080fd5b5061014d610290565b6040518082815260200191505060405180910390f35b34801561016f57600080fd5b5061017861029a565b6040518082815260200191505060405180910390f35b34801561019a57600080fd5b506101a36102a4565b6040518082815260200191505060405180910390f35b3480156101c557600080fd5b506101ce6102ae565b6040518082815260200191505060405180910390f35b606060008054600181600116156101000203166002900480601f01602080910402602001604051908101604052809291908181526020018280546001816001161561010002031660029004801561027c5780601f106102515761010080835404028352916020019161027c565b820191906000526020600020905b81548152906001019060200180831161025f57829003601f168201915b5050505050905090565b6000600554905090565b6000600354905090565b6000600254905090565b6000600154905090565b600060045490509056fea165627a7a723058206077496b345b970dd555331aff99e0e86cea0d1b640321206fc9502ac2288a9b002960806040526040805190810160405280600881526020017f4261636b737461620000000000000000000000000000000000000000000000008152506001600a60036001846000908051906020019061005892919061007f565b50826002819055508360018190555081600381905550806004819055505050505050610124565b828054600181600116156101000203166002900490600052602060002090601f016020900481019282601f106100c057805160ff19168380011785556100ee565b828001600101855582156100ee579182015b828111156100ed5782518255916020019190600101906100d2565b5b5090506100fb91906100ff565b5090565b61012191905b8082111561011d576000816000905550600101610105565b5090565b90565b6102a4806101336000396000f3fe60806040526004361061006d576000357c0100000000000000000000000000000000000000000000000000000000900463ffffffff16806317d7de7c1461007257806357e61ea4146101025780635bd81ab51461012d578063a89e834314610158578063b7c4c13d14610183575b600080fd5b34801561007e57600080fd5b506100876101ae565b6040518080602001828103825283818151815260200191508051906020019080838360005b838110156100c75780820151818401526020810190506100ac565b50505050905090810190601f1680156100f45780820380516001836020036101000a031916815260200191505b509250505060405180910390f35b34801561010e57600080fd5b50610117610250565b6040518082815260200191505060405180910390f35b34801561013957600080fd5b5061014261025a565b6040518082815260200191505060405180910390f35b34801561016457600080fd5b5061016d610264565b6040518082815260200191505060405180910390f35b34801561018f57600080fd5b5061019861026e565b6040518082815260200191505060405180910390f35b606060008054600181600116156101000203166002900480601f0160208091040260200160405190810160405280929190818152602001828054600181600116156101000203166002900480156102465780601f1061021b57610100808354040283529160200191610246565b820191906000526020600020905b81548152906001019060200180831161022957829003601f168201915b5050505050905090565b6000600354905090565b6000600254905090565b6000600454905090565b600060015490509056fea165627a7a723058205308c007da1c3bc33eee968d6b38f3607d6f7fc43df0e663f5dbc26470677f710029",
  "source": "pragma solidity ^0.5.0;\r\n\r\nimport \"../Class.sol\";\r\nimport \"../Skills/Backstab.sol\";\r\n\r\ncontract Rogue is Class(\"Rogue\", 15, 10, 5, 5, 3) {\r\n    constructor() public{\r\n        _skills.push(new Backstab());\r\n    }\r\n}",
  "sourcePath": "C:/Users/Yichun/Documents/Projects/Programming/ethereum-game/contracts/Classes/Rogue.sol",
  "compiler": {
    "name": "solc",
    "version": "0.5.0+commit.1d4f565a.Emscripten.clang"
  },
  "schemaVersion": "3.0.1",
  "updatedAt": "2019-01-13T08:04:34.260Z",
  "devdoc": {
    "methods": {}
  },
  "userdoc": {
    "methods": {}
  }
}