{
  "contractName": "Rogue",
  "abi": [
    {
      "constant": true,
      "inputs": [],
      "name": "getName",
      "outputs": [
        {
          "name": "",
          "type": "string"
        }
      ],
      "payable": false,
      "stateMutability": "view",
      "type": "function"
    },
    {
      "constant": true,
      "inputs": [],
      "name": "getIntelligence",
      "outputs": [
        {
          "name": "",
          "type": "uint256"
        }
      ],
      "payable": false,
      "stateMutability": "view",
      "type": "function"
    },
    {
      "constant": true,
      "inputs": [],
      "name": "getAgility",
      "outputs": [
        {
          "name": "",
          "type": "uint256"
        }
      ],
      "payable": false,
      "stateMutability": "view",
      "type": "function"
    },
    {
      "constant": true,
      "inputs": [],
      "name": "getHitPoints",
      "outputs": [
        {
          "name": "",
          "type": "uint256"
        }
      ],
      "payable": false,
      "stateMutability": "view",
      "type": "function"
    },
    {
      "constant": true,
      "inputs": [],
      "name": "getStrength",
      "outputs": [
        {
          "name": "",
          "type": "uint256"
        }
      ],
      "payable": false,
      "stateMutability": "view",
      "type": "function"
    }
  ],
  "bytecode": "0x60806040526040805190810160405280600581526020017f526f677565000000000000000000000000000000000000000000000000000000815250600f600a600580846000908051906020019061005792919061007e565b50836001819055508260028190555081600381905550806004819055505050505050610123565b828054600181600116156101000203166002900490600052602060002090601f016020900481019282601f106100bf57805160ff19168380011785556100ed565b828001600101855582156100ed579182015b828111156100ec5782518255916020019190600101906100d1565b5b5090506100fa91906100fe565b5090565b61012091905b8082111561011c576000816000905550600101610104565b5090565b90565b6102a4806101326000396000f3fe60806040526004361061006d576000357c0100000000000000000000000000000000000000000000000000000000900463ffffffff16806317d7de7c14610072578063bb94ea6714610102578063e0f8b6ad1461012d578063ee38684714610158578063f18ac37714610183575b600080fd5b34801561007e57600080fd5b506100876101ae565b6040518080602001828103825283818151815260200191508051906020019080838360005b838110156100c75780820151818401526020810190506100ac565b50505050905090810190601f1680156100f45780820380516001836020036101000a031916815260200191505b509250505060405180910390f35b34801561010e57600080fd5b50610117610250565b6040518082815260200191505060405180910390f35b34801561013957600080fd5b5061014261025a565b6040518082815260200191505060405180910390f35b34801561016457600080fd5b5061016d610264565b6040518082815260200191505060405180910390f35b34801561018f57600080fd5b5061019861026e565b6040518082815260200191505060405180910390f35b606060008054600181600116156101000203166002900480601f0160208091040260200160405190810160405280929190818152602001828054600181600116156101000203166002900480156102465780601f1061021b57610100808354040283529160200191610246565b820191906000526020600020905b81548152906001019060200180831161022957829003601f168201915b5050505050905090565b6000600354905090565b6000600254905090565b6000600154905090565b600060045490509056fea165627a7a72305820b6cc3d0799bb40a7e0ff54efd3d39ffd6cbe3bf09f1a5d4141520a4d6a1983090029",
  "source": "pragma solidity ^0.5.0;\r\n\r\nimport \"../Class.sol\";\r\n\r\ncontract Rogue is Class(\"Rogue\", 15, 10, 5, 5) {\r\n    \r\n}",
  "sourcePath": "C:/Users/Yichun/Documents/Projects/Programming/ethereum-game/contracts/Classes/Rogue.sol",
  "compiler": {
    "name": "solc",
    "version": "0.5.0+commit.1d4f565a.Emscripten.clang"
  },
  "schemaVersion": "3.0.1",
  "updatedAt": "2019-01-12T17:48:01.118Z",
  "devdoc": {
    "methods": {}
  },
  "userdoc": {
    "methods": {}
  }
}